{
  "_format": "hh-sol-artifact-1",
  "contractName": "NFT",
  "sourceName": "contracts/NFT.sol",
  "abi": [
    {
      "inputs": [],
      "stateMutability": "nonpayable",
      "type": "constructor"
    },
    {
      "anonymous": false,
      "inputs": [
        {
          "indexed": true,
          "internalType": "address",
          "name": "owner",
          "type": "address"
        },
        {
          "indexed": true,
          "internalType": "address",
          "name": "approved",
          "type": "address"
        },
        {
          "indexed": true,
          "internalType": "uint256",
          "name": "tokenId",
          "type": "uint256"
        }
      ],
      "name": "Approval",
      "type": "event"
    },
    {
      "anonymous": false,
      "inputs": [
        {
          "indexed": true,
          "internalType": "address",
          "name": "owner",
          "type": "address"
        },
        {
          "indexed": true,
          "internalType": "address",
          "name": "operator",
          "type": "address"
        },
        {
          "indexed": false,
          "internalType": "bool",
          "name": "approved",
          "type": "bool"
        }
      ],
      "name": "ApprovalForAll",
      "type": "event"
    },
    {
      "anonymous": false,
      "inputs": [
        {
          "indexed": true,
          "internalType": "address",
          "name": "previousOwner",
          "type": "address"
        },
        {
          "indexed": true,
          "internalType": "address",
          "name": "newOwner",
          "type": "address"
        }
      ],
      "name": "OwnershipTransferred",
      "type": "event"
    },
    {
      "anonymous": false,
      "inputs": [
        {
          "indexed": false,
          "internalType": "address",
          "name": "account",
          "type": "address"
        }
      ],
      "name": "Paused",
      "type": "event"
    },
    {
      "anonymous": false,
      "inputs": [
        {
          "indexed": true,
          "internalType": "address",
          "name": "from",
          "type": "address"
        },
        {
          "indexed": true,
          "internalType": "address",
          "name": "to",
          "type": "address"
        },
        {
          "indexed": true,
          "internalType": "uint256",
          "name": "tokenId",
          "type": "uint256"
        }
      ],
      "name": "Transfer",
      "type": "event"
    },
    {
      "anonymous": false,
      "inputs": [
        {
          "indexed": false,
          "internalType": "address",
          "name": "account",
          "type": "address"
        }
      ],
      "name": "Unpaused",
      "type": "event"
    },
    {
      "inputs": [
        {
          "internalType": "address",
          "name": "to",
          "type": "address"
        },
        {
          "internalType": "uint256",
          "name": "tokenId",
          "type": "uint256"
        }
      ],
      "name": "approve",
      "outputs": [],
      "stateMutability": "nonpayable",
      "type": "function"
    },
    {
      "inputs": [
        {
          "internalType": "address",
          "name": "owner",
          "type": "address"
        }
      ],
      "name": "balanceOf",
      "outputs": [
        {
          "internalType": "uint256",
          "name": "",
          "type": "uint256"
        }
      ],
      "stateMutability": "view",
      "type": "function"
    },
    {
      "inputs": [
        {
          "internalType": "uint256",
          "name": "tokenId",
          "type": "uint256"
        }
      ],
      "name": "getApproved",
      "outputs": [
        {
          "internalType": "address",
          "name": "",
          "type": "address"
        }
      ],
      "stateMutability": "view",
      "type": "function"
    },
    {
      "inputs": [
        {
          "internalType": "address",
          "name": "owner",
          "type": "address"
        },
        {
          "internalType": "address",
          "name": "operator",
          "type": "address"
        }
      ],
      "name": "isApprovedForAll",
      "outputs": [
        {
          "internalType": "bool",
          "name": "",
          "type": "bool"
        }
      ],
      "stateMutability": "view",
      "type": "function"
    },
    {
      "inputs": [
        {
          "internalType": "address",
          "name": "to",
          "type": "address"
        },
        {
          "internalType": "string",
          "name": "domain",
          "type": "string"
        }
      ],
      "name": "mint",
      "outputs": [
        {
          "internalType": "uint256",
          "name": "",
          "type": "uint256"
        }
      ],
      "stateMutability": "nonpayable",
      "type": "function"
    },
    {
      "inputs": [],
      "name": "name",
      "outputs": [
        {
          "internalType": "string",
          "name": "",
          "type": "string"
        }
      ],
      "stateMutability": "view",
      "type": "function"
    },
    {
      "inputs": [],
      "name": "nextTokenId",
      "outputs": [
        {
          "internalType": "uint256",
          "name": "",
          "type": "uint256"
        }
      ],
      "stateMutability": "view",
      "type": "function"
    },
    {
      "inputs": [],
      "name": "owner",
      "outputs": [
        {
          "internalType": "address",
          "name": "",
          "type": "address"
        }
      ],
      "stateMutability": "view",
      "type": "function"
    },
    {
      "inputs": [
        {
          "internalType": "uint256",
          "name": "tokenId",
          "type": "uint256"
        }
      ],
      "name": "ownerOf",
      "outputs": [
        {
          "internalType": "address",
          "name": "",
          "type": "address"
        }
      ],
      "stateMutability": "view",
      "type": "function"
    },
    {
      "inputs": [],
      "name": "pause",
      "outputs": [],
      "stateMutability": "nonpayable",
      "type": "function"
    },
    {
      "inputs": [],
      "name": "paused",
      "outputs": [
        {
          "internalType": "bool",
          "name": "",
          "type": "bool"
        }
      ],
      "stateMutability": "view",
      "type": "function"
    },
    {
      "inputs": [],
      "name": "renounceOwnership",
      "outputs": [],
      "stateMutability": "nonpayable",
      "type": "function"
    },
    {
      "inputs": [
        {
          "internalType": "address",
          "name": "from",
          "type": "address"
        },
        {
          "internalType": "address",
          "name": "to",
          "type": "address"
        },
        {
          "internalType": "uint256",
          "name": "tokenId",
          "type": "uint256"
        }
      ],
      "name": "safeTransferFrom",
      "outputs": [],
      "stateMutability": "nonpayable",
      "type": "function"
    },
    {
      "inputs": [
        {
          "internalType": "address",
          "name": "from",
          "type": "address"
        },
        {
          "internalType": "address",
          "name": "to",
          "type": "address"
        },
        {
          "internalType": "uint256",
          "name": "tokenId",
          "type": "uint256"
        },
        {
          "internalType": "bytes",
          "name": "data",
          "type": "bytes"
        }
      ],
      "name": "safeTransferFrom",
      "outputs": [],
      "stateMutability": "nonpayable",
      "type": "function"
    },
    {
      "inputs": [
        {
          "internalType": "address",
          "name": "operator",
          "type": "address"
        },
        {
          "internalType": "bool",
          "name": "approved",
          "type": "bool"
        }
      ],
      "name": "setApprovalForAll",
      "outputs": [],
      "stateMutability": "nonpayable",
      "type": "function"
    },
    {
      "inputs": [
        {
          "internalType": "uint256",
          "name": "tokenId",
          "type": "uint256"
        },
        {
          "internalType": "string",
          "name": "uri",
          "type": "string"
        }
      ],
      "name": "setTokenURI",
      "outputs": [],
      "stateMutability": "nonpayable",
      "type": "function"
    },
    {
      "inputs": [
        {
          "internalType": "bytes4",
          "name": "interfaceId",
          "type": "bytes4"
        }
      ],
      "name": "supportsInterface",
      "outputs": [
        {
          "internalType": "bool",
          "name": "",
          "type": "bool"
        }
      ],
      "stateMutability": "view",
      "type": "function"
    },
    {
      "inputs": [],
      "name": "symbol",
      "outputs": [
        {
          "internalType": "string",
          "name": "",
          "type": "string"
        }
      ],
      "stateMutability": "view",
      "type": "function"
    },
    {
      "inputs": [
        {
          "internalType": "uint256",
          "name": "",
          "type": "uint256"
        }
      ],
      "name": "tokenIdToDomain",
      "outputs": [
        {
          "internalType": "string",
          "name": "",
          "type": "string"
        }
      ],
      "stateMutability": "view",
      "type": "function"
    },
    {
      "inputs": [
        {
          "internalType": "uint256",
          "name": "tokenId",
          "type": "uint256"
        }
      ],
      "name": "tokenURI",
      "outputs": [
        {
          "internalType": "string",
          "name": "",
          "type": "string"
        }
      ],
      "stateMutability": "view",
      "type": "function"
    },
    {
      "inputs": [
        {
          "internalType": "address",
          "name": "from",
          "type": "address"
        },
        {
          "internalType": "address",
          "name": "to",
          "type": "address"
        },
        {
          "internalType": "uint256",
          "name": "tokenId",
          "type": "uint256"
        }
      ],
      "name": "transferFrom",
      "outputs": [],
      "stateMutability": "nonpayable",
      "type": "function"
    },
    {
      "inputs": [
        {
          "internalType": "address",
          "name": "newOwner",
          "type": "address"
        }
      ],
      "name": "transferOwnership",
      "outputs": [],
      "stateMutability": "nonpayable",
      "type": "function"
    },
    {
      "inputs": [],
      "name": "unpause",
      "outputs": [],
      "stateMutability": "nonpayable",
      "type": "function"
    }
  ],
  "bytecode": "0x60806040523480156200001157600080fd5b506040518060400160405280600381526020017f4e465400000000000000000000000000000000000000000000000000000000008152506040518060400160405280600381526020017f4e46540000000000000000000000000000000000000000000000000000000000815250816000908051906020019062000096929190620001c1565b508060019080519060200190620000af929190620001c1565b5050506000600660006101000a81548160ff021916908315150217905550620000ed620000e1620000f360201b60201c565b620000fb60201b60201c565b620002d6565b600033905090565b6000600660019054906101000a900473ffffffffffffffffffffffffffffffffffffffff16905081600660016101000a81548173ffffffffffffffffffffffffffffffffffffffff021916908373ffffffffffffffffffffffffffffffffffffffff1602179055508173ffffffffffffffffffffffffffffffffffffffff168173ffffffffffffffffffffffffffffffffffffffff167f8be0079c531659141344cd1fd0a4f28419497f9722a3daafe3b4186f6b6457e060405160405180910390a35050565b828054620001cf9062000271565b90600052602060002090601f016020900481019282620001f357600085556200023f565b82601f106200020e57805160ff19168380011785556200023f565b828001600101855582156200023f579182015b828111156200023e57825182559160200191906001019062000221565b5b5090506200024e919062000252565b5090565b5b808211156200026d57600081600090555060010162000253565b5090565b600060028204905060018216806200028a57607f821691505b60208210811415620002a157620002a0620002a7565b5b50919050565b7f4e487b7100000000000000000000000000000000000000000000000000000000600052602260045260246000fd5b612f1180620002e66000396000f3fe608060405234801561001057600080fd5b506004361061014d5760003560e01c8063715018a6116100c3578063a22cb4651161007c578063a22cb46514610366578063b88d4fde14610382578063c87b56dd1461039e578063d0def521146103ce578063e985e9c5146103fe578063f2fde38b1461042e5761014d565b8063715018a6146102c857806375794a3c146102d25780638456cb59146102f05780638cd108de146102fa5780638da5cb5b1461032a57806395d89b41146103485761014d565b806323b872dd1161011557806323b872dd146102085780633f4ba83a1461022457806342842e0e1461022e5780635c975abb1461024a5780636352211e1461026857806370a08231146102985761014d565b806301ffc9a71461015257806306fdde0314610182578063081812fc146101a0578063095ea7b3146101d0578063162094c4146101ec575b600080fd5b61016c60048036038101906101679190612060565b61044a565b60405161017991906124af565b60405180910390f35b61018a61052c565b60405161019791906124ca565b60405180910390f35b6101ba60048036038101906101b591906120ba565b6105be565b6040516101c79190612448565b60405180910390f35b6101ea60048036038101906101e59190612020565b610604565b005b610206600480360381019061020191906120e7565b61071c565b005b610222600480360381019061021d9190611eaa565b610744565b005b61022c6107a4565b005b61024860048036038101906102439190611eaa565b6107b6565b005b6102526107d6565b60405161025f91906124af565b60405180910390f35b610282600480360381019061027d91906120ba565b6107ed565b60405161028f9190612448565b60405180910390f35b6102b260048036038101906102ad9190611e3d565b61089f565b6040516102bf91906126cc565b60405180910390f35b6102d0610957565b005b6102da61096b565b6040516102e791906126cc565b60405180910390f35b6102f8610994565b005b610314600480360381019061030f91906120ba565b6109a6565b60405161032191906124ca565b60405180910390f35b610332610a46565b60405161033f9190612448565b60405180910390f35b610350610a70565b60405161035d91906124ca565b60405180910390f35b610380600480360381019061037b9190611f80565b610b02565b005b61039c60048036038101906103979190611efd565b610b18565b005b6103b860048036038101906103b391906120ba565b610b7a565b6040516103c591906124ca565b60405180910390f35b6103e860048036038101906103e39190611fc0565b610be2565b6040516103f591906126cc565b60405180910390f35b61041860048036038101906104139190611e6a565b610c44565b60405161042591906124af565b60405180910390f35b61044860048036038101906104439190611e3d565b610cd8565b005b60007f80ac58cd000000000000000000000000000000000000000000000000000000007bffffffffffffffffffffffffffffffffffffffffffffffffffffffff1916827bffffffffffffffffffffffffffffffffffffffffffffffffffffffff1916148061051557507f5b5e139f000000000000000000000000000000000000000000000000000000007bffffffffffffffffffffffffffffffffffffffffffffffffffffffff1916827bffffffffffffffffffffffffffffffffffffffffffffffffffffffff1916145b80610525575061052482610d5c565b5b9050919050565b60606000805461053b906128f1565b80601f0160208091040260200160405190810160405280929190818152602001828054610567906128f1565b80156105b45780601f10610589576101008083540402835291602001916105b4565b820191906000526020600020905b81548152906001019060200180831161059757829003601f168201915b5050505050905090565b60006105c982610dc6565b6004600083815260200190815260200160002060009054906101000a900473ffffffffffffffffffffffffffffffffffffffff169050919050565b600061060f826107ed565b90508073ffffffffffffffffffffffffffffffffffffffff168373ffffffffffffffffffffffffffffffffffffffff161415610680576040517f08c379a00000000000000000000000000000000000000000000000000000000081526004016106779061268c565b60405180910390fd5b8073ffffffffffffffffffffffffffffffffffffffff1661069f610e11565b73ffffffffffffffffffffffffffffffffffffffff1614806106ce57506106cd816106c8610e11565b610c44565b5b61070d576040517f08c379a00000000000000000000000000000000000000000000000000000000081526004016107049061260c565b60405180910390fd5b6107178383610e19565b505050565b818160086000868152602001908152602001600020919061073e929190611c6b565b50505050565b61075561074f610e11565b82610ed2565b610794576040517f08c379a000000000000000000000000000000000000000000000000000000000815260040161078b906126ac565b60405180910390fd5b61079f838383610f67565b505050565b6107ac6111ce565b6107b461124c565b565b6107d183838360405180602001604052806000815250610b18565b505050565b6000600660009054906101000a900460ff16905090565b6000806002600084815260200190815260200160002060009054906101000a900473ffffffffffffffffffffffffffffffffffffffff169050600073ffffffffffffffffffffffffffffffffffffffff168173ffffffffffffffffffffffffffffffffffffffff161415610896576040517f08c379a000000000000000000000000000000000000000000000000000000000815260040161088d9061266c565b60405180910390fd5b80915050919050565b60008073ffffffffffffffffffffffffffffffffffffffff168273ffffffffffffffffffffffffffffffffffffffff161415610910576040517f08c379a0000000000000000000000000000000000000000000000000000000008152600401610907906125ec565b60405180910390fd5b600360008373ffffffffffffffffffffffffffffffffffffffff1673ffffffffffffffffffffffffffffffffffffffff168152602001908152602001600020549050919050565b61095f6111ce565b61096960006112af565b565b6000806109786007611375565b1461098c576109876007611375565b61098f565b60015b905090565b61099c6111ce565b6109a4611383565b565b600960205280600052604060002060009150905080546109c5906128f1565b80601f01602080910402602001604051908101604052809291908181526020018280546109f1906128f1565b8015610a3e5780601f10610a1357610100808354040283529160200191610a3e565b820191906000526020600020905b815481529060010190602001808311610a2157829003601f168201915b505050505081565b6000600660019054906101000a900473ffffffffffffffffffffffffffffffffffffffff16905090565b606060018054610a7f906128f1565b80601f0160208091040260200160405190810160405280929190818152602001828054610aab906128f1565b8015610af85780601f10610acd57610100808354040283529160200191610af8565b820191906000526020600020905b815481529060010190602001808311610adb57829003601f168201915b5050505050905090565b610b14610b0d610e11565b83836113e6565b5050565b610b29610b23610e11565b83610ed2565b610b68576040517f08c379a0000000000000000000000000000000000000000000000000000000008152600401610b5f906126ac565b60405180910390fd5b610b7484848484611553565b50505050565b6060610b8582610dc6565b6000610b8f6115af565b90506000815111610baf5760405180602001604052806000815250610bda565b80610bb9846115c6565b604051602001610bca929190612424565b6040516020818303038152906040525b915050919050565b6000610bec6111ce565b610bf4611727565b6000610c006007611375565b9050610c0c6007611771565b610c168582611787565b8383600960008481526020019081526020016000209190610c38929190611c6b565b50809150509392505050565b6000600560008473ffffffffffffffffffffffffffffffffffffffff1673ffffffffffffffffffffffffffffffffffffffff16815260200190815260200160002060008373ffffffffffffffffffffffffffffffffffffffff1673ffffffffffffffffffffffffffffffffffffffff16815260200190815260200160002060009054906101000a900460ff16905092915050565b610ce06111ce565b600073ffffffffffffffffffffffffffffffffffffffff168173ffffffffffffffffffffffffffffffffffffffff161415610d50576040517f08c379a0000000000000000000000000000000000000000000000000000000008152600401610d479061252c565b60405180910390fd5b610d59816112af565b50565b60007f01ffc9a7000000000000000000000000000000000000000000000000000000007bffffffffffffffffffffffffffffffffffffffffffffffffffffffff1916827bffffffffffffffffffffffffffffffffffffffffffffffffffffffff1916149050919050565b610dcf816117a5565b610e0e576040517f08c379a0000000000000000000000000000000000000000000000000000000008152600401610e059061266c565b60405180910390fd5b50565b600033905090565b816004600083815260200190815260200160002060006101000a81548173ffffffffffffffffffffffffffffffffffffffff021916908373ffffffffffffffffffffffffffffffffffffffff160217905550808273ffffffffffffffffffffffffffffffffffffffff16610e8c836107ed565b73ffffffffffffffffffffffffffffffffffffffff167f8c5be1e5ebec7d5bd14f71427d1e84f3dd0314c0f7b2291e5b200ac8c7c3b92560405160405180910390a45050565b600080610ede836107ed565b90508073ffffffffffffffffffffffffffffffffffffffff168473ffffffffffffffffffffffffffffffffffffffff161480610f205750610f1f8185610c44565b5b80610f5e57508373ffffffffffffffffffffffffffffffffffffffff16610f46846105be565b73ffffffffffffffffffffffffffffffffffffffff16145b91505092915050565b8273ffffffffffffffffffffffffffffffffffffffff16610f87826107ed565b73ffffffffffffffffffffffffffffffffffffffff1614610fdd576040517f08c379a0000000000000000000000000000000000000000000000000000000008152600401610fd49061254c565b60405180910390fd5b600073ffffffffffffffffffffffffffffffffffffffff168273ffffffffffffffffffffffffffffffffffffffff16141561104d576040517f08c379a00000000000000000000000000000000000000000000000000000000081526004016110449061258c565b60405180910390fd5b611058838383611811565b611063600082610e19565b6001600360008573ffffffffffffffffffffffffffffffffffffffff1673ffffffffffffffffffffffffffffffffffffffff16815260200190815260200160002060008282546110b39190612807565b925050819055506001600360008473ffffffffffffffffffffffffffffffffffffffff1673ffffffffffffffffffffffffffffffffffffffff168152602001908152602001600020600082825461110a9190612780565b92505081905550816002600083815260200190815260200160002060006101000a81548173ffffffffffffffffffffffffffffffffffffffff021916908373ffffffffffffffffffffffffffffffffffffffff160217905550808273ffffffffffffffffffffffffffffffffffffffff168473ffffffffffffffffffffffffffffffffffffffff167fddf252ad1be2c89b69c2b068fc378daa952ba7f163c4a11628f55a4df523b3ef60405160405180910390a46111c9838383611829565b505050565b6111d6610e11565b73ffffffffffffffffffffffffffffffffffffffff166111f4610a46565b73ffffffffffffffffffffffffffffffffffffffff161461124a576040517f08c379a00000000000000000000000000000000000000000000000000000000081526004016112419061264c565b60405180910390fd5b565b61125461182e565b6000600660006101000a81548160ff0219169083151502179055507f5db9ee0a495bf2e6ff9c91a7834c1ba4fdd244a5e8aa4e537bd38aeae4b073aa611298610e11565b6040516112a59190612448565b60405180910390a1565b6000600660019054906101000a900473ffffffffffffffffffffffffffffffffffffffff16905081600660016101000a81548173ffffffffffffffffffffffffffffffffffffffff021916908373ffffffffffffffffffffffffffffffffffffffff1602179055508173ffffffffffffffffffffffffffffffffffffffff168173ffffffffffffffffffffffffffffffffffffffff167f8be0079c531659141344cd1fd0a4f28419497f9722a3daafe3b4186f6b6457e060405160405180910390a35050565b600081600001549050919050565b61138b611727565b6001600660006101000a81548160ff0219169083151502179055507f62e78cea01bee320cd4e420270b5ea74000d11b0c9f74754ebdbfc544b05a2586113cf610e11565b6040516113dc9190612448565b60405180910390a1565b8173ffffffffffffffffffffffffffffffffffffffff168373ffffffffffffffffffffffffffffffffffffffff161415611455576040517f08c379a000000000000000000000000000000000000000000000000000000000815260040161144c906125ac565b60405180910390fd5b80600560008573ffffffffffffffffffffffffffffffffffffffff1673ffffffffffffffffffffffffffffffffffffffff16815260200190815260200160002060008473ffffffffffffffffffffffffffffffffffffffff1673ffffffffffffffffffffffffffffffffffffffff16815260200190815260200160002060006101000a81548160ff0219169083151502179055508173ffffffffffffffffffffffffffffffffffffffff168373ffffffffffffffffffffffffffffffffffffffff167f17307eab39ab6107e8899845ad3d59bd9653f200f220920489ca2b5937696c318360405161154691906124af565b60405180910390a3505050565b61155e848484610f67565b61156a84848484611877565b6115a9576040517f08c379a00000000000000000000000000000000000000000000000000000000081526004016115a09061250c565b60405180910390fd5b50505050565b606060405180602001604052806000815250905090565b6060600082141561160e576040518060400160405280600181526020017f30000000000000000000000000000000000000000000000000000000000000008152509050611722565b600082905060005b6000821461164057808061162990612954565b915050600a8261163991906127d6565b9150611616565b60008167ffffffffffffffff81111561165c5761165b612a8a565b5b6040519080825280601f01601f19166020018201604052801561168e5781602001600182028036833780820191505090505b5090505b6000851461171b576001826116a79190612807565b9150600a856116b6919061299d565b60306116c29190612780565b60f81b8183815181106116d8576116d7612a5b565b5b60200101907effffffffffffffffffffffffffffffffffffffffffffffffffffffffffffff1916908160001a905350600a8561171491906127d6565b9450611692565b8093505050505b919050565b61172f6107d6565b1561176f576040517f08c379a0000000000000000000000000000000000000000000000000000000008152600401611766906125cc565b60405180910390fd5b565b6001816000016000828254019250508190555050565b6117a1828260405180602001604052806000815250611a0e565b5050565b60008073ffffffffffffffffffffffffffffffffffffffff166002600084815260200190815260200160002060009054906101000a900473ffffffffffffffffffffffffffffffffffffffff1673ffffffffffffffffffffffffffffffffffffffff1614159050919050565b611819611727565b611824838383611a69565b505050565b505050565b6118366107d6565b611875576040517f08c379a000000000000000000000000000000000000000000000000000000000815260040161186c906124ec565b60405180910390fd5b565b60006118988473ffffffffffffffffffffffffffffffffffffffff16611a6e565b15611a01578373ffffffffffffffffffffffffffffffffffffffff1663150b7a026118c1610e11565b8786866040518563ffffffff1660e01b81526004016118e39493929190612463565b602060405180830381600087803b1580156118fd57600080fd5b505af192505050801561192e57506040513d601f19601f8201168201806040525081019061192b919061208d565b60015b6119b1573d806000811461195e576040519150601f19603f3d011682016040523d82523d6000602084013e611963565b606091505b506000815114156119a9576040517f08c379a00000000000000000000000000000000000000000000000000000000081526004016119a09061250c565b60405180910390fd5b805181602001fd5b63150b7a0260e01b7bffffffffffffffffffffffffffffffffffffffffffffffffffffffff1916817bffffffffffffffffffffffffffffffffffffffffffffffffffffffff191614915050611a06565b600190505b949350505050565b611a188383611a91565b611a256000848484611877565b611a64576040517f08c379a0000000000000000000000000000000000000000000000000000000008152600401611a5b9061250c565b60405180910390fd5b505050565b505050565b6000808273ffffffffffffffffffffffffffffffffffffffff163b119050919050565b600073ffffffffffffffffffffffffffffffffffffffff168273ffffffffffffffffffffffffffffffffffffffff161415611b01576040517f08c379a0000000000000000000000000000000000000000000000000000000008152600401611af89061262c565b60405180910390fd5b611b0a816117a5565b15611b4a576040517f08c379a0000000000000000000000000000000000000000000000000000000008152600401611b419061256c565b60405180910390fd5b611b5660008383611811565b6001600360008473ffffffffffffffffffffffffffffffffffffffff1673ffffffffffffffffffffffffffffffffffffffff1681526020019081526020016000206000828254611ba69190612780565b92505081905550816002600083815260200190815260200160002060006101000a81548173ffffffffffffffffffffffffffffffffffffffff021916908373ffffffffffffffffffffffffffffffffffffffff160217905550808273ffffffffffffffffffffffffffffffffffffffff16600073ffffffffffffffffffffffffffffffffffffffff167fddf252ad1be2c89b69c2b068fc378daa952ba7f163c4a11628f55a4df523b3ef60405160405180910390a4611c6760008383611829565b5050565b828054611c77906128f1565b90600052602060002090601f016020900481019282611c995760008555611ce0565b82601f10611cb257803560ff1916838001178555611ce0565b82800160010185558215611ce0579182015b82811115611cdf578235825591602001919060010190611cc4565b5b509050611ced9190611cf1565b5090565b5b80821115611d0a576000816000905550600101611cf2565b5090565b6000611d21611d1c8461270c565b6126e7565b905082815260208101848484011115611d3d57611d3c612ac8565b5b611d488482856128af565b509392505050565b600081359050611d5f81612e7f565b92915050565b600081359050611d7481612e96565b92915050565b600081359050611d8981612ead565b92915050565b600081519050611d9e81612ead565b92915050565b600082601f830112611db957611db8612abe565b5b8135611dc9848260208601611d0e565b91505092915050565b60008083601f840112611de857611de7612abe565b5b8235905067ffffffffffffffff811115611e0557611e04612ab9565b5b602083019150836001820283011115611e2157611e20612ac3565b5b9250929050565b600081359050611e3781612ec4565b92915050565b600060208284031215611e5357611e52612ad2565b5b6000611e6184828501611d50565b91505092915050565b60008060408385031215611e8157611e80612ad2565b5b6000611e8f85828601611d50565b9250506020611ea085828601611d50565b9150509250929050565b600080600060608486031215611ec357611ec2612ad2565b5b6000611ed186828701611d50565b9350506020611ee286828701611d50565b9250506040611ef386828701611e28565b9150509250925092565b60008060008060808587031215611f1757611f16612ad2565b5b6000611f2587828801611d50565b9450506020611f3687828801611d50565b9350506040611f4787828801611e28565b925050606085013567ffffffffffffffff811115611f6857611f67612acd565b5b611f7487828801611da4565b91505092959194509250565b60008060408385031215611f9757611f96612ad2565b5b6000611fa585828601611d50565b9250506020611fb685828601611d65565b9150509250929050565b600080600060408486031215611fd957611fd8612ad2565b5b6000611fe786828701611d50565b935050602084013567ffffffffffffffff81111561200857612007612acd565b5b61201486828701611dd2565b92509250509250925092565b6000806040838503121561203757612036612ad2565b5b600061204585828601611d50565b925050602061205685828601611e28565b9150509250929050565b60006020828403121561207657612075612ad2565b5b600061208484828501611d7a565b91505092915050565b6000602082840312156120a3576120a2612ad2565b5b60006120b184828501611d8f565b91505092915050565b6000602082840312156120d0576120cf612ad2565b5b60006120de84828501611e28565b91505092915050565b600080600060408486031215612100576120ff612ad2565b5b600061210e86828701611e28565b935050602084013567ffffffffffffffff81111561212f5761212e612acd565b5b61213b86828701611dd2565b92509250509250925092565b6121508161283b565b82525050565b61215f8161284d565b82525050565b60006121708261273d565b61217a8185612753565b935061218a8185602086016128be565b61219381612ad7565b840191505092915050565b60006121a982612748565b6121b38185612764565b93506121c38185602086016128be565b6121cc81612ad7565b840191505092915050565b60006121e282612748565b6121ec8185612775565b93506121fc8185602086016128be565b80840191505092915050565b6000612215601483612764565b915061222082612ae8565b602082019050919050565b6000612238603283612764565b915061224382612b11565b604082019050919050565b600061225b602683612764565b915061226682612b60565b604082019050919050565b600061227e602583612764565b915061228982612baf565b604082019050919050565b60006122a1601c83612764565b91506122ac82612bfe565b602082019050919050565b60006122c4602483612764565b91506122cf82612c27565b604082019050919050565b60006122e7601983612764565b91506122f282612c76565b602082019050919050565b600061230a601083612764565b915061231582612c9f565b602082019050919050565b600061232d602983612764565b915061233882612cc8565b604082019050919050565b6000612350603e83612764565b915061235b82612d17565b604082019050919050565b6000612373602083612764565b915061237e82612d66565b602082019050919050565b6000612396602083612764565b91506123a182612d8f565b602082019050919050565b60006123b9601883612764565b91506123c482612db8565b602082019050919050565b60006123dc602183612764565b91506123e782612de1565b604082019050919050565b60006123ff602e83612764565b915061240a82612e30565b604082019050919050565b61241e816128a5565b82525050565b600061243082856121d7565b915061243c82846121d7565b91508190509392505050565b600060208201905061245d6000830184612147565b92915050565b60006080820190506124786000830187612147565b6124856020830186612147565b6124926040830185612415565b81810360608301526124a48184612165565b905095945050505050565b60006020820190506124c46000830184612156565b92915050565b600060208201905081810360008301526124e4818461219e565b905092915050565b6000602082019050818103600083015261250581612208565b9050919050565b600060208201905081810360008301526125258161222b565b9050919050565b600060208201905081810360008301526125458161224e565b9050919050565b6000602082019050818103600083015261256581612271565b9050919050565b6000602082019050818103600083015261258581612294565b9050919050565b600060208201905081810360008301526125a5816122b7565b9050919050565b600060208201905081810360008301526125c5816122da565b9050919050565b600060208201905081810360008301526125e5816122fd565b9050919050565b6000602082019050818103600083015261260581612320565b9050919050565b6000602082019050818103600083015261262581612343565b9050919050565b6000602082019050818103600083015261264581612366565b9050919050565b6000602082019050818103600083015261266581612389565b9050919050565b60006020820190508181036000830152612685816123ac565b9050919050565b600060208201905081810360008301526126a5816123cf565b9050919050565b600060208201905081810360008301526126c5816123f2565b9050919050565b60006020820190506126e16000830184612415565b92915050565b60006126f1612702565b90506126fd8282612923565b919050565b6000604051905090565b600067ffffffffffffffff82111561272757612726612a8a565b5b61273082612ad7565b9050602081019050919050565b600081519050919050565b600081519050919050565b600082825260208201905092915050565b600082825260208201905092915050565b600081905092915050565b600061278b826128a5565b9150612796836128a5565b9250827fffffffffffffffffffffffffffffffffffffffffffffffffffffffffffffffff038211156127cb576127ca6129ce565b5b828201905092915050565b60006127e1826128a5565b91506127ec836128a5565b9250826127fc576127fb6129fd565b5b828204905092915050565b6000612812826128a5565b915061281d836128a5565b9250828210156128305761282f6129ce565b5b828203905092915050565b600061284682612885565b9050919050565b60008115159050919050565b60007fffffffff0000000000000000000000000000000000000000000000000000000082169050919050565b600073ffffffffffffffffffffffffffffffffffffffff82169050919050565b6000819050919050565b82818337600083830152505050565b60005b838110156128dc5780820151818401526020810190506128c1565b838111156128eb576000848401525b50505050565b6000600282049050600182168061290957607f821691505b6020821081141561291d5761291c612a2c565b5b50919050565b61292c82612ad7565b810181811067ffffffffffffffff8211171561294b5761294a612a8a565b5b80604052505050565b600061295f826128a5565b91507fffffffffffffffffffffffffffffffffffffffffffffffffffffffffffffffff821415612992576129916129ce565b5b600182019050919050565b60006129a8826128a5565b91506129b3836128a5565b9250826129c3576129c26129fd565b5b828206905092915050565b7f4e487b7100000000000000000000000000000000000000000000000000000000600052601160045260246000fd5b7f4e487b7100000000000000000000000000000000000000000000000000000000600052601260045260246000fd5b7f4e487b7100000000000000000000000000000000000000000000000000000000600052602260045260246000fd5b7f4e487b7100000000000000000000000000000000000000000000000000000000600052603260045260246000fd5b7f4e487b7100000000000000000000000000000000000000000000000000000000600052604160045260246000fd5b600080fd5b600080fd5b600080fd5b600080fd5b600080fd5b600080fd5b6000601f19601f8301169050919050565b7f5061757361626c653a206e6f7420706175736564000000000000000000000000600082015250565b7f4552433732313a207472616e7366657220746f206e6f6e20455243373231526560008201527f63656976657220696d706c656d656e7465720000000000000000000000000000602082015250565b7f4f776e61626c653a206e6577206f776e657220697320746865207a65726f206160008201527f6464726573730000000000000000000000000000000000000000000000000000602082015250565b7f4552433732313a207472616e736665722066726f6d20696e636f72726563742060008201527f6f776e6572000000000000000000000000000000000000000000000000000000602082015250565b7f4552433732313a20746f6b656e20616c7265616479206d696e74656400000000600082015250565b7f4552433732313a207472616e7366657220746f20746865207a65726f2061646460008201527f7265737300000000000000000000000000000000000000000000000000000000602082015250565b7f4552433732313a20617070726f766520746f2063616c6c657200000000000000600082015250565b7f5061757361626c653a2070617573656400000000000000000000000000000000600082015250565b7f4552433732313a2061646472657373207a65726f206973206e6f74206120766160008201527f6c6964206f776e65720000000000000000000000000000000000000000000000602082015250565b7f4552433732313a20617070726f76652063616c6c6572206973206e6f7420746f60008201527f6b656e206f776e6572206e6f7220617070726f76656420666f7220616c6c0000602082015250565b7f4552433732313a206d696e7420746f20746865207a65726f2061646472657373600082015250565b7f4f776e61626c653a2063616c6c6572206973206e6f7420746865206f776e6572600082015250565b7f4552433732313a20696e76616c696420746f6b656e2049440000000000000000600082015250565b7f4552433732313a20617070726f76616c20746f2063757272656e74206f776e6560008201527f7200000000000000000000000000000000000000000000000000000000000000602082015250565b7f4552433732313a2063616c6c6572206973206e6f7420746f6b656e206f776e6560008201527f72206e6f7220617070726f766564000000000000000000000000000000000000602082015250565b612e888161283b565b8114612e9357600080fd5b50565b612e9f8161284d565b8114612eaa57600080fd5b50565b612eb681612859565b8114612ec157600080fd5b50565b612ecd816128a5565b8114612ed857600080fd5b5056fea26469706673582212203d8a105be7b21c0bd1260c837b3bb224ee557c311465e0485bf2ece402aa821964736f6c63430008070033",
  "linkReferences": {},
  "deployedLinkReferences": {}
}